:1020000000800020C5440000AD440000AD44000045
:1020100000000000000000000000000000000000C0
:10202000000000000000000000000000AD440000BF
:102030000000000000000000AD4400001945000051
:10204000AD440000AD440000AD440000AD440000CC
:10205000AD440000AD440000AD440000B1440000B8
:10206000AD440000AD440000AD440000D93F000085
:10207000AD440000FD430000ED430000AD4400000E
:10208000AD440000AD440000AD440000AD4400008C
:1020900000000000AD440000AD440000AD4400006D
:1020A000AD440000AD440000AD440000AD4400006C
:1020B0000000000010B5064C2378002B07D1054B1B
:1020C000002B02D0044800E000BF0123237010BDA4
:1020D0000001002000000000D09D0000044B10B55E
:1020E000002B03D00349044800E000BF10BDC046E8
:1020F0000000000004010020D09D00001FB50F4823
:1021000000F07BF9FF2804D10D490E4804F06EFD64
:10211000FEE700F05DF9010001A804F018FE0A498D
:1021200001A804F027FE002803DA0849054804F056
:102130005DFD01A804F0C1FD05B000BD3C0100201B
:10214000EC9400003806002013950000199500005B
:1021500070B50C4C2368032B13D00B4E0B49300089
:1021600004F02BFD0A4D3000290004F03FFD094A20
:102170002900094800F051F92060084802F010FADF
:10218000E7E770BD38010020380600209A9500006E
:1021900031000020040000203C0100201027000036
:1021A00037B5154C1549200004F007FD144D2800E3
:1021B00000F01BF90100200004F018FD290068461A
:1021C00000F00AF90F49200004F0F7FC69462000EE
:1021D00004F016FD280000F00CF905000A49200063
:1021E00004F0EBFC29000A22200004F037FD074927
:1021F000200004F0FBFC37BD38060020B39500003A
:102200003C010020BA950000C7950000E095000051
:10221000962110B5134C8901200003F0BBF9200072
:1022200003F0BAF90028FAD00F49200004F0DEFCD0
:102230000E4801F07FFC002804D10D49200004F075
:10224000D5FCFEE70B49200004F0D0FCFFF756FF59
:10225000FFF77EFF0849200004F0C8FCFFF7A0FF4D
:1022600010BDC04638060020E5950000F0010020B2
:1022700006960000329600005A96000010B50248FB
:1022800000F004FB10BDC0461C01002030B5324CEC
:102290008BB0200000F014FB50223049200000F0E9
:1022A00007F92F4D002852D02E49280004F09EFC3B
:1022B0002D49280004F09AFC2C4D0621280001F03D
:1022C00041FA06F09FFE2A4B002205F053FA06F071
:1022D00029FE0A22694602F0C3F90121280001F013
:1022E000B5FA06F08FFE224B002205F043FA06F005
:1022F00019FE0A2205A902F0B3F91E49200004F0D4
:102300005CFC6946200004F058FC1B49200004F0E6
:1023100054FC05A9200004F050FC1849200004F0EA
:1023200065FC174D2000696804F060FCA968200076
:1023300004F05CFCE968200004F058FC200004F084
:102340004DFC02F0F7F80F4B18600BB030BD0E4992
:10235000280004F04BFCF8E71C01002028000020B6
:1023600038060020359500004C950000F001002053
:102370000000E03F5A950000789500007E9500002F
:1023800018000020340100208895000010B50C4C86
:10239000200000F011FA002807D0200000F018FA01
:1023A000C1B2084802F070FFF1E702F0C3F8064B33
:1023B0001B68C01A054B984201D9FFF767FF10BD93
:1023C0001C010020380600203401002010270000E6
:1023D00010B501F087F910BD10B5040004F00AFB38
:1023E000200001F071F8200010BD10B501F080F858
:1023F00010BD10B501F0B6F810BD10B501F03AF8F7
:1024000010BD10B50800110001F060F910BD43685F
:1024100010B5002B00D0984710BDF8B50500080096
:102420000E00170007F010F80400380007F00CF851
:10243000E1B2C3B23A00300000F0D8FF0424431CDC
:1024400014D002F077F80024060002F073F82B682D
:10245000801B98420AD22800FFF7D9FF642002F0BF
:102460009FF801F007F804000228EED92000F8BD1B
:102470000022024B024906C37047C0463C010020BF
:1024800050C300000020704713B56B460268D97135
:102490000733546819000122A04716BD0175704723
:1024A0007047007CFF38431E9841C0B2704700005F
:1024B00070B50E0086B0040002A8150004F09AFA68
:1024C00002AA31000848FFF79CFF00280AD0074AFB
:1024D00023680492039ADB690192059204A92A00F9
:1024E0002000984706B070BD3C010020289C0000E9
:1024F00070B5037C04000D001600FF2B02D00368AA
:102500009B6A984700F072FC02002074FF281ED0DE
:1025100068680023310000F09FFA02F00BF8050014
:1025200023682000DB6A9847002809D102F002F8EE
:102530000A4B401B984203D8012002F031F8EFE724
:1025400023682000DB6A9847431E984170BD044908
:10255000044804F04BFB0020F8E7C0460F270000BA
:10256000E09600003806002070B5037C04000D00E2
:102570001600FF2B02D003689B6A984700F036FCD8
:1025800002002074FF281ED068680223310000F08A
:1025900063FA01F0CFFF050023682000DB6A98474B
:1025A000002809D101F0C6FF0A4B401B984203D80E
:1025B000012001F0F5FFEFE723682000DB6A984770
:1025C000431E984170BD0449044804F00FFB0020ED
:1025D000F8E7C0460F270000E0960000380600200C
:1025E00070B5037C04000D001600FF2B02D00368B9
:1025F0009B6A984700F0FAFB02002074FF281ED067
:1026000068680423310000F027FA01F093FF050009
:1026100023682000DB6A9847002809D101F08AFF6F
:102620000A4B401B984203D8012001F0B9FFEFE7A5
:1026300023682000DB6A9847431E984170BD044917
:10264000044804F0D3FA0020F8E7C0460F27000042
:10265000E096000038060020F7B5037C04000E0069
:102660001700FF2B02D003689B6A984700F0BEFB5F
:1026700005002074FF2825D0300006F0E5FE022377
:10268000C1B2019300953B000022300000F026FA11
:1026900001F050FF050023682000DB6A98470028FE
:1026A00009D101F047FF0A4B401B984203D8012093
:1026B00001F076FFEFE723682000DB6A9847431EAE
:1026C0009841FEBD0349044804F090FA0020F8E761
:1026D0000F270000E096000038060020F7B5037CC5
:1026E00004000E001700FF2B02D003689B6A984776
:1026F00000F07CFB05002074FF2825D0300006F098
:10270000A3FE0423C1B2019300953B0000223000D8
:1027100000F0E4F901F00EFF050023682000DB6AF9
:102720009847002809D101F005FF0A4B401B984249
:1027300003D8012001F034FFEFE723682000DB6AB3
:102740009847431E9841FEBD0349044804F04EFAE1
:102750000020F8E70F270000E09600003806002070
:10276000F8B50500007C0E001400FF2804D10123F9
:1027700000246B602000F8BD002AF8D092B200F06F
:10278000A7FA002815D12B7D002B03D1287C00F05F
:10279000F9F9ECE72B6822005F6C31000123280077
:1027A000B847041EF2D0287C00F0D4FA0028DED00E
:1027B000E0E70400F7E7000010B5017C0020FF29E6
:1027C00002D0024800F0DEF810BDC04644010020EF
:1027D000036837B51B6904009847002809D06B4689
:1027E000DD1D217C01232A00034800F007F9287829
:1027F0003EBD01204042FBE74401002010B50C0023
:102800001300017C2200024800F0F8F810BDC04619
:102810004401002010B5017C014800F0DFF810BD34
:102820004401002007B500236A4601931380007C11
:1028300001A900F097FD6B466A461B7850781B0291
:10284000C01880B20EBD13B500236A460400019380
:102850001380087C01A900F085FD01A9200004F087
:10286000DFF8200016BDF8B505000E001700002B9C
:102870000AD00524BAB2287C310000F029FA0028D9
:1028800003D1013C002CF5D10020F8BD00234360AA
:10289000FA239B008360044B08330360FF23037417
:1028A000FE3B03757047C046F496000010B5037CEC
:1028B0000020FF2B02D0180000F098F910BD000096
:1028C00070B50400007CFF2814D000F05BF93225BD
:1028D0002000FFF7EBFF002806D0013D002D03D0BC
:1028E000642001F05DFEF3E7217C034800F030F83E
:1028F000FF23237470BDC0464401002070B5037CE3
:1029000004000025FF2B05D003681B699847A842E7
:1029100002D00125280070BD2000FFF7C7FF0A285C
:10292000F7D8054BC340DB07F3D5217C034800F003
:102930000FF8FF232374EDE7EF04000044010020AB
:1029400010B504007822002106F09FFC200010BD85
:1029500010B50C244C4304192068002805D006F05B
:1029600081FC002363602360A36010BD70B5050087
:102970000024210028000134FFF7EAFF0A2CF8D1D7
:10298000280070BDF7B50C244C430419A36805005A
:102990000E00002B1AD12768002F05D10E4806F033
:1029A00057FCA760606020606B469F1D0A4BF0B229
:1029B0003A0021683B8000F04FF9002806D02368D8
:1029C0003A8863600C237343EB189A600C235E43D0
:1029D000AD19A868FEBDC046DC05000070B5040056
:1029E0000D00FFF7CFFF002805D00C2169436418C4
:1029F0006368187870BD01204042FBE7F8B5060017
:102A00000C0017001D00FFF7BDFF002811D0854204
:102A100000DD05000C235C4334192A00616838008E
:102A200006F02AFC280063685B196360A3685B1BDF
:102A3000A360F8BD10B5054C2000FFF781FF044AE4
:102A40000449200004F0D0F910BDC0464401002024
:102A5000000000206D2900007FB50E0069468C1C27
:102A600023701D4BCD1C1B7801902A70002B01D1C7
:102A700000F00CFA002000F0E3F900F05FFA042106
:102A80002D2000F00DFC002201A8042100F0CAFA5C
:102A90003000002100F0F2FB28000022012100F0AC
:102AA000C1FA01222000110000F0BCFA00F06EFA19
:102AB000002000F0C5F900F041FA0E220F2300219A
:102AC0006A446B44117019702D20013100F0D2FA64
:102AD00000F05CFA7FBDC046BD010020F0B51C00CF
:102AE000274B85B01B7806000D000192002B01D109
:102AF00000F0CCF9002000F0A3F900F01FFA052146
:102B00002D2000F0CDFB30000022290000F08AFAD1
:102B10000022042101A800F085FA0021200000F025
:102B2000ADFB002201210AA800F07CFA01220BAEC5
:102B30001100300000F076FA03272C0011343C40DD
:102B40000135002C02D000F04DFAF6E700F01EFA35
:102B50003078043843425841C0B200F071F900F0B7
:102B6000EDF90E220F236A446B4401212D201470CD
:102B70001C7000F07FFA00F009FA05B0F0BDC04605
:102B8000BD0100201FB56B46DC1D174B20701B7864
:102B9000002B01D100F07AF9002000F051F900F08B
:102BA000CDF901212E2000F07BFB01222000110035
:102BB00000F038FA00F016FA00F014FA00F0E6F926
:102BC000002000F03DF900F0B9F90E220F2300219A
:102BD0006A446B44117019702E20013100F04AFADA
:102BE00000F0D4F91FBDC046BD0100201FB56B46E3
:102BF000DC1D184B20701B78002B01D100F046F92A
:102C0000002000F01DF900F099F901212F2000F0BB
:102C100047FB01222000110000F004FA00F0E2F965
:102C200000F0E0F900F0B2F9002000F009F90E24FC
:102C300000F084F90F2300226C446B441A70227058
:102C4000012122002F2000F015FA00F09FF92078D2
:102C500004B010BDBD01002073B56B46DD1D0E0034
:102C60001400287000F00AF9002801D1208076BDF8
:102C7000164B1B78002B01D100F008F9002000F062
:102C8000DFF800F05BF90221452000F009FB00228B
:102C90000121280000F0DDFA01220221200000F0CD
:102CA000D8FA00F09FF900F071F9002000F0C8F8A0
:102CB00000F044F922003100452000F098FA00F0BD
:102CC00065F92088431E9841C0B2D0E7BD010020BD
:102CD0007FB56B46DC1D1E4B0E001B781500207067
:102CE000002B01D100F0D2F8002000F0A9F800F08C
:102CF00025F90221442000F0D3FA0022012120000E
:102D000000F0A7FA30000122290000F0A2FA032601
:102D10002C00093434400135002C02D000F062F957
:102D2000F6E700F033F90E25200000F089F800F0F6
:102D300005F90D226D446A442900442014702C804A
:102D400000F0CCF900F022F9288804B070BDC0462C
:102D5000BD010020F0B50E2585B00F2700246B467D
:102D600001266D446F44D8712C703C701E4B1B784B
:102D7000002B01D100F08AF8002000F061F800F08B
:102D8000DDF831002A2000F08BFA6B46320031006A
:102D9000D81D00F047F900F025F900F023F900F004
:102DA000F5F8002000F04CF800F0C8F83B002A00CD
:102DB00031002A2000F05EF900F0E8F82B78002BB3
:102DC0000FD101346420A4B201F0EAFB2B78002B70
:102DD00001D1182CCAD9193C601E8441E0B205B05B
:102DE000F0BD0024F2E7C046BD010020134B13B52F
:102DF0001B78002B01D100F049F8002000F020F8EA
:102E000000F09CF800213F2000F04AFA00F0BEF8E4
:102E1000002000F015F800F091F86B469C1DFF2390
:102E200023706B46002207331A70012122003F20D5
:102E300000F020F900F0AAF8207816BDBD010020AE
:102E400070B5050001F076FB0400094B187801F01D
:102E500055FE00280BD0002DF7D001F06BFB054B81
:102E6000001B9842F1D80448FFF7D1FAEDE770BD96
:102E70003B0000200F2700003C01002010B51E2061
:102E800001F03CFE431E984110BD0000F8B51C2324
:102E9000234E244F3370244C07333B70BD332370D3
:102EA00001F026FA214DDF2804D801232B70237866
:102EB000DB4323703078012101F0A8FD3878002130
:102EC00001F0A4FD2078012101F0A0FD01211E20C8
:102ED00001F09CFD01211E2001F0E4FD307801216C
:102EE00001F0E0FD2978207801F0DCFD0A2001F0F6
:102EF00057FB297801252078694001F0D3FD0C4863
:102F000001F04EFB00211E2001F0CCFD00211E200F
:102F100001F07CFD074801F05BF9074B1D70F8BD1F
:102F20003D0000203B0000203C000020BC010020B0
:102F3000EE02000068040020BD01002013B500244B
:102F40006B466A461C7101235371019A0B490C4868
:102F500001F066F90B4B2100187801F0A3FD01F098
:102F6000E9FA0400084B187801F0C8FD012804D0E4
:102F700001F0E0FA001B0428F4D913BD00127A0016
:102F8000680400203D0000203B00002010B5044BE9
:102F90000121187801F086FD024801F0C1F810BD4A
:102FA0003D0000206804002007B56B46D871D97930
:102FB0000248C9B201F03DF80EBDC04668040020C9
:102FC00010B50400FF20FFF7EFFF207010BD70B5B3
:102FD0000C0005000800FFF7F3FF2078401B434278
:102FE000584170BD13B56B46DC1D002320002370D3
:102FF000FFF7E6FF207816BD70B50500084CFFF717
:10300000F1FFEF2808D0013C002C01D0A842F6D1F6
:10301000401B4342584170BD01204042FBE7C0467F
:10302000E9030000F8B5050008000E0017002C00A9
:10303000FFF7BAFF631B9E4204DD2078FFF7B4FF61
:103040000134F7E7012F02D1EE20FFF7ADFFF8BD05
:1030500010B50400000AFFF7A7FFE0B2FFF7A4FFD6
:1030600010BD10B50400FF20FFF79EFF002C00D01C
:10307000207010BDF0B585B01F0002ABDC1D002331
:103080000500E020019116002370FFF7B5FF00282E
:1030900002D1002005B0F0BD2000FFF791FF802293
:1030A00023781543AB42F4D12000FFF789FF237842
:1030B000019A9342EDD13800FFF7D3FF35003A78FB
:1030C000AB1B9A4204DD2800FFF77AFF0135F6E7D3
:1030D0002100EE20FFF77BFF0120DBE7F7B56B4611
:1030E000DC1D00230500E0200E0017002370FFF711
:1030F00083FF002801D10020FEBD2000FFF760FF04
:10310000802223781543AB42F5D1FFF76BFF0028EF
:103110000DD03800FFF7A5FF35003A78AB1B9A4277
:1031200005DDFF20FFF740FF28700135F5E721009E
:10313000EE20FFF74CFF0120DEE7F0B587B004ABCF
:10314000DE1D00230500E020039114003370FFF71B
:1031500053FF002802D1002007B0F0BD3000FFF778
:103160002FFF802233781543AB42F4D1FFF73AFFAB
:1031700001900028EFD005234343E3180293029BFC
:103180009C421AD0FF20FFF70FFF00272070237802
:10319000BB4210DDA37865781B022B43E578FF2046
:1031A0002D042B4325792D061D43FFF7FDFEED1958
:1031B00028700137EBE70534E1E7019B039A93425E
:1031C000C9D13100EE20FFF702FF0120C4E770B53E
:1031D0000500FF20FFF7E8FE0400FF20FFF7E4FEF4
:1031E0002402204380B2002D00D0288070BDF0B5AD
:1031F000002485B002AB0700DD1DE0200191160020
:103200002C70FFF7F9FEA04202D1002005B0F0BDFE
:103210002800FFF7D5FE80222B781743BB42F4D15C
:10322000FFF7E0FE00280ED03000FFF7D0FF338814
:10323000A34208D9019BFF201F19FFF7B5FE0134F7
:103240003870A4B2F3E72900EE20FFF7C0FE01209A
:10325000DCE770B504000D0008001600FFF7F8FE6B
:103260006519AC4204D02078FFF79EFE0134F8E7E0
:10327000012E02D1EE20FFF797FE70BD70B504005D
:1032800002200D00FFF790FE200AFFF78DFEE0B24E
:10329000FFF78AFE012D02D1EE20FFF785FE70BDFB
:1032A00070B50400E0200D00FFF77EFE7F20204077
:1032B000FFF77AFE2800FFF777FE002D02D1EE20FF
:1032C000FFF772FE70BD000070B586B005001400F7
:1032D0000E000B22002102A805F0D7FF09232A0ABD
:1032E0006B441D705A702A0C2D0E9A70DD700E23DF
:1032F0006B441E80360C5E801323220A6B441C70C4
:103300005A70220C240E9A70DC70154B1B78002B1F
:1033100001D1FFF7BBFD0020FFF792FDFFF70EFE86
:1033200021200121FFF7BCFF6B460122D81DFF239E
:1033300011000370FFF776FEFFF754FEFFF752FE11
:10334000FFF724FE0020FFF77BFDFFF7F7FD02AA41
:1033500003212120FFF7F1FEFFF718FE06B070BD34
:10336000BD01002070B586B06B46DE1D0C00150057
:1033700030700622002103A805F087FF0D23220AE2
:103380006B441C705A70220C240E9A70DC7012234D
:103390006B441D802D0C5D80134B1B78002B01D1DD
:1033A000FFF774FD0020FFF74BFDFFF7C7FD01217C
:1033B0003A20FFF775FF012230001100FFF732FEBF
:1033C000FFF710FEFFF70EFEFFF7E0FD0020FFF70E
:1033D00037FDFFF7B3FD03AA02213A20FFF7ADFE48
:1033E000FFF7D4FD06B070BDBD010020F7B51D008C
:1033F0001F4B07001B780C001600002B01D1FFF7B4
:1034000045FD0020FFF71CFDFFF798FD022111206C
:10341000FFF746FF210000223800FFF703FE3000CF
:1034200001222900FFF7FEFD03260634641925005A
:10343000354003D0FFF7D6FD0134F8E7FFF7A6FDCE
:103440002800FFF7FDFCFFF779FD6B469C1D22006D
:1034500007330121112025701D70FFF70BFE002896
:1034600001D1FF232370FFF791FD00202056FEBD00
:10347000BD010020134B13B51B78002B01D1FFF7C2
:1034800005FD0020FFF7DCFCFFF758FD00212020A0
:10349000FFF706FFFFF77AFD0020FFF7D1FCFFF7EB
:1034A0004DFD6B469C1DFF2323706B4600220733A6
:1034B0001A70012122002020FFF7DCFDFFF766FDD6
:1034C000207816BDBD01002070B50500054C064AE8
:1034D00020000649FFF7F8FE2800210003F0ACFAAF
:1034E00070BDC046E6010020BE010020C2010020E0
:1034F0001A4B13B51B78002B01D1FFF7C7FC002036
:10350000FFF79EFCFFF71AFD23200121FFF7C8FEFD
:103510006B460122981DFF2311000370FFF782FD07
:10352000FFF760FDFFF75EFDFFF730FD0020FFF7BE
:1035300087FCFFF703FD0A4C20220021200005F044
:10354000A4FE6B46002207331A70012122002320BB
:10355000FFF790FDFFF71AFD200016BDBD0100200A
:10356000C6010020184B07B51B78002B01D1FFF7CF
:103570008DFC0020FFF764FCFFF7E0FC2520012113
:10358000FFF78EFE6B460122981CFF23110003708B
:10359000FFF748FDFFF726FDFFF724FDFFF7F6FCD8
:1035A0000020FFF74DFCFFF7C9FC6B4600220333F8
:1035B0001A700192012101AA2520FFF75BFDFFF798
:1035C000E5FC01980EBDC046BD010020204B73B53F
:1035D0001B780400002B01D1FFF758FC0020FFF7F7
:1035E0002FFCFFF7ABFC01213420FFF759FE200030
:1035F00005F02AFF0122C1B22000FFF713FD2000D1
:1036000005F022FF0326441D2500354003D0FFF7B7
:10361000E9FC0134F8E7FFF7B9FC2800FFF710FCDC
:10362000FFF78CFC6B469E1D9D7132000733012114
:1036300034201D70FFF71EFDC4B2FFF7A7FC002C5D
:1036400004D03478013C60424441E4B2200076BDAD
:10365000BD010020FF2130B587B00B0005000091AF
:103660000A0004A803F0CEF9174B1B78002B01D1F8
:10367000FFF70CFC0020FFF7E3FBFFF75FFC0021E6
:103680003520FFF70DFEFFF781FC0020FFF7D8FB88
:10369000FFF754FC0B2300226B441A70012103AA8C
:1036A0003520FFF7E7FC041E08D003A9280003F02B
:1036B000C3F9059B6C68E41A631E9C41FFF766FC26
:1036C000200007B030BDC046BD01002010B50C0081
:1036D000FFF77CFF03000020834202D02000FFF7A9
:1036E000B9FF10BD124B13B51B78002B01D1FFF7AA
:1036F000CDFB0020FFF7A4FBFFF720FC00213720C3
:10370000FFF7CEFDFFF742FC0020FFF799FBFFF724
:1037100015FC6B460022074C07331A70012122006A
:103720003720FFF7A7FCFFF731FC200016BDC0468D
:10373000BD010020EA01002010B50368C9B21B6872
:10374000984710BD406810B5C0B20C0001F0F0F809
:1037500005F01EFC00220B4B04F02AFE00220A4B4F
:1037600004F024FB05F0A0FC084903F075FD052CCE
:1037700007D105F047FC064A064B04F019FE05F098
:1037800093FC10BD00C8A94000F88F400000A04085
:103790001346B3B27DC8B73F70B5037A04000D007D
:1037A0001600002B02D00020102912D0206829001A
:1037B0000368DB6A98472068310003681B689847F4
:1037C0002068002103681B6B9847002802D0012065
:1037D000404270BD2068012203682900DB6B9847D6
:1037E0000128F4D1206803685B699847F1E7F8B5D0
:1037F000140005000E00FFF7CFFF01340700310071
:103800002800E2B2FFF7C8FF00023843F8BD70B5E8
:103810001D00037A04001600002B02D0002010299E
:1038200013D020680368DB6A98472068310003687A
:103830001B6898472068290003681B689847206820
:1038400003685B6B98474342584170BD70B50400F4
:103850000D00012621225F212000FFF79DFF30424D
:10386000F8D1012321225F212000FFF7D0FF01269C
:1038700027225F212000FFF78FFF304202D100F0A6
:10388000B3FEF5E72A225F212000FFF7B0FF00B268
:1038900003F026FF616903F0F1FDA16903F042FB2B
:1038A000002D0FD105F0AEFB0022074B04F080FD88
:1038B0000022064B04F07AFA0022054B03F05AFF6F
:1038C00005F0F2FB70BDC04600002240000014402D
:1038D0000000404070B5037A04000D001600002B74
:1038E00002D00020102912D0206829000368DB6A6A
:1038F00098472068310003681B68984720680021BA
:1039000003681B6B9847002802D00120404270BD1D
:103910002068022203682900DB6B98470228F4D153
:10392000206803685B6998470500206803685B6945
:10393000984700022843EAE770B51D00037A0400A7
:103940001600002B02D00120102916D02068036831
:10395000DB6A98472068310003681B689847E9B222
:103960002068FFF7E9FE29122068FFF7E5FE2068CE
:1039700003685B6B98474342584170BD10B5040023
:10398000012300221021FFF7D7FF802321225F218E
:103990002000FFF73CFF20225F2100232000FFF7DB
:1039A00036FF206803685B6A98470021112001F008
:1039B0002DF810BDF0B5302289B05F210500FFF76A
:1039C000EBFE312207005F212800FFF7E5FE3222DF
:1039D00006005F212800FFF7DFFE352203905F21FC
:1039E0002800FFF7D9FE332204905F212800FFF75B
:1039F000D3FE352205905F212800FFF7CDFE362249
:103A000006905F212800FFF7F2FE3A2203B25F2101
:103A100028000093FFF7EBFE3C2204005F21280002
:103A2000FFF7E5FE3E2203B25F2128000193FFF776
:103A3000DEFE0790FF2007403040C01B029705F0D4
:103A4000A7FA009B060020B2C01A0F0005F0A0FAEA
:103A500002000B0003F08EFE02000B003000390064
:103A600004F0A4F905F020FB041CE860029805F0BE
:103A70008FFA00222D4B04F09BFC060000980F00EB
:103A800003F02EFE211C03F0F9FC05F0BBFA020046
:103A90000B003000390004F0FDFE05F005FB049B2F
:103AA000039A1C02C0239B001C401443069A286101
:103AB00090011840059BA4B2184380B2001B05F08A
:103AC00067FA6B4606001C20185E019B0F00C01AA7
:103AD00005F05EFA0022164B04F06AFC02000B00AF
:103AE0003000390004F062F905F0DEFA00906861F8
:103AF000200005F04DFAFF2300229B0504F058FC3E
:103B0000060001980F0003F0EBFD009903F0B6FCEE
:103B100005F078FA02000B003000390004F0BAFE1C
:103B200005F0C2FAA86109B0F0BDC0460000E03F50
:103B30000000204010B5040000680368DB69984766
:103B40000F225F212000FFF727FEBC2804D02000B1
:103B5000FFF714FF002010BD0F225C212000FFF7AB
:103B60001BFEB128F3D10C2210212000FFF7B2FE7A
:103B7000262801D0012323722000FFF71BFF842396
:103B800020225F212000FFF742FE402322225F21F6
:103B90002000FFF73CFE1023002219002000FFF751
:103BA000CBFE0120D7E70000034B044A1A60112224
:103BB0005A6000221A727047F00100200C020020A7
:103BC00010B503689C6B0123A04710BD8C23002215
:103BD0009B00C154103BC3185A609A60DA600123FD
:103BE0008375704710B5036801211B6B984710BDA2
:103BF000F8B505000E0017000024BC4208D02B6861
:103C0000315D1B6828009847002801D00134F4E793
:103C10002000F8BDFC30406A704770478E239B003F
:103C2000C15070478D239B00C15070470300FC3387
:103C30005A6A002A03D01B6AC018007E7047012010
:103C40004042FBE770B5060018250C49006901F0F9
:103C5000B1FA306901F0F5F82B000821307D084CED
:103C60004343E318595600F061FF0821707D454336
:103C70006419615600F05AFF70BDC046A08601006D
:103C8000E097000070B504000D00006901F0EEF847
:103C90002900206901F08EFA206901F0D2F870BD88
:103CA00010B5006901F0E2F810BD0000F7B501930E
:103CB000FA238026002504009B008360134B7600C6
:103CC00008330F004560290000920360320018306D
:103CD00005F0DBFA23002000FC332530DD613200E3
:103CE0001D6229005D62FF3005F0CFFA88239B003A
:103CF000E3185D609D60DD606B461B78276123756E
:103D00006B461B79A57520006375FEBD50970000BA
:103D100070B506001825006901F027FA306901F036
:103D200090F82B000821307D064C4343E318595688
:103D300000F0FCFE0821707D45436419615600F0D7
:103D4000F5FE70BDE097000010B50022FFF7E0FF20
:103D500010BD0300802210B5FC33DC685200944291
:103D600008D05A6881545A680132D2B25A60DA686F
:103D70000132DA6010BDF7B50400171E019302D1BD
:103D800000252800FEBD03000022FC33DA611A6220
:103D90005A620069013201F09BF8061EF0D0230040
:103DA00020691833009301F020F901000098FFF713
:103DB000D0FF01252069BD4214D001F0F4F800289D
:103DC0000FD0206901F064F80221206901F06AF83F
:103DD000206901F00AF901000098FFF7BAFF0135E8
:103DE000E8E70600206901F04BF8019B002B06D0A4
:103DF000002E06D00321206901F054F8C1E7002EFF
:103E0000BFD1013DBDE7002310B5827D9A420CD0A1
:103E1000882292008218D46880225200944204D0F2
:103E20002530FF30FFF795FF0123180010BD030078
:103E3000FC33DA68002A09D09A68805C9A680132FB
:103E4000D2B29A60DA68013ADA60704701204042E3
:103E5000FBE700228C2370B59B00827504000E00E6
:103E6000C15C006901F034F8002806D10321206903
:103E700001F018F80225280070BD88239B00E31884
:103E8000DD68002D11D020002530FF302569FFF7B7
:103E9000CEFFC1B2280001F05DF80028EDD103216A
:103EA000206900F0FFFF0325E5E7002EE3D00321A2
:103EB000206900F0F7FFDEE710B51830FFF7B7FF15
:103EC00010BD70B50400006901F064F8002815D039
:103ED000206901F076F8002811D0206900F0D8FFA1
:103EE0000321206900F0DEFF8E239B00E558002DA2
:103EF00035D10023FC34E3612362636270BD206925
:103F000001F069F8002809D0206901F05FF8002865
:103F100004D0206901F064F80028DED0206901F0A7
:103F20005AF8002821D1206901F046F80028E5D090
:103F3000206901F055F8002833D088239B00E3184E
:103F4000DB68FF21002B05D020002530FF30FFF774
:103F50006EFFC1B2206901F00FF8A075CEE72368AB
:103F600020001B699847A847C3E7206900F090FF2D
:103F70002069032100F096FF206901F031F8002844
:103F8000BCD0882300229B00E3185A609A60DA6054
:103F90000123A3758D239B00E3589342AED098472D
:103FA000ACE72300FC335A6A802320695B009A4205
:103FB00006D100F065FF0321206900F073FF9DE743
:103FC00001F013F8010020001830FFF7C2FE20694D
:103FD00000F05EFFEFE7000010B50248FFF771FF49
:103FE00010BDC0460C02002010B50C230B22024964
:103FF0000248FFF75BFE10BD200600200C020020E7
:1040000070B506000C008D18AC4207D033682178DB
:104010009B683000984720700134F5E770BD704709
:10402000704710B50400406800F0CCFE00232376F2
:1040300010BD10B5406800F0EAFE10BDF8B50500EF
:1040400040680C0000F0DEFE2B68E7B2260A9B6891
:10405000012810D139002800FF2798472B68BC435E
:1040600004439B6831002800984703022000384031
:10407000184380B2F8BD310028009847FF262B680E
:104080000002344004439B68390028009847B44339
:104090002043EEE710B5040002F0A2FE200010BDA0
:1040A00010B54B1C0BD0102909D0EFF3108472B659
:1040B000102905DD02234376002C00D162B610BD25
:1040C0000123427E1A43427618224A430449891842
:1040D00016228A569340C2691343C361ECE7C04677
:1040E000E09700004B1C17D0102915D0437E9B078A
:1040F00012D4EFF3108272B618234B430749C91844
:104100000123897D49B28B40C1699943C16100D1C6
:104110004176002A00D162B67047C046E0970000A1
:10412000437E002B05D09A0704D5837E002B00D058
:1041300062B67047DB07FCD5C369024A9BB2D36005
:10414000F7E7C04600180040037E002B04D14376F9
:104150008376C36101330376704700007FB503693E
:1041600002AE04000D00029172608B4203D1828A7C
:10417000B3889A4226D0200006223100103005F084
:104180007BF8606800F035FE7379E17A013B581ED8
:104190008341227B00936068002300F0C1FF3379E4
:1041A0000021013BDBB2022B01D8074AD15C074B4F
:1041B0002A009D4200D91A00606800F0EBFD60689B
:1041C00000F00DFE7FBDC046A097000000366E01D6
:1041D00070B518260400FFF7B7FF33000821207AD6
:1041E0000D4D4343EB18595600F0A0FC3300082155
:1041F000A07A4343EB18595600F098FC0821607AE6
:104200004643AD19695600F091FC044B200006CBE3
:10421000FFF7A4FF70BDC046E097000088040020AF
:1042200007B5437E00910192002B07D09A070AD56B
:10423000EFF310835A425341837672B60099019A84
:10424000FFF78CFF07BDDB07F8D5C369014A9BB2B6
:104250009360F3E700180040F7B500240125194BDF
:10426000194A5D711A601C71184B19480833019383
:104270000360184B184F4360184B194E03810923F4
:104280003A0031004575046104758372063B04767B
:10429000C472037302F0A8FD1248134B019A4360E5
:1042A000124B457503811D233100026004613A0001
:1042B000047583721A3B05730476C37202F094FD91
:1042C000F7BDC0468804002000093D00A497000007
:1042D000480400201C060020000000200A080000FE
:1042E0002140000068040020280600201B1A00005E
:1042F0002420704770B50121202000F087FB0021A9
:10430000202000F0CFFB0A2000F04AF900212020F5
:1043100000F07CFB642000F043F9202000F008FB53
:10432000962305009B002F4C984222DD2E49200049
:1043300000F040FF200000F084FD03210B2000F07E
:10434000F5FB03210C2000F0F1FB00226B21200083
:1043500000F0BEFD0121200000F0FCFD1B2120002B
:1043600000F0F8FD2000032100F09CFD200000F08B
:104370007DFD1D49200000F01DFF200000F061FDC3
:1043800003210B2000F0D2FB03210C2000F0CEFB18
:1043900000226B21200000F09BFD0721200000F08F
:1043A000D9FD96232B219B009D4200DD2039200062
:1043B00000F0D0FD0321200000F074FD200000F08B
:1043C00055FD01211E2000F021FB01211E2000F0DF
:1043D00069FB01211F2000F019FB01211F2000F0C3
:1043E00061FB70BD20060020A086010010B50248C8
:1043F00002F030FA10BDC0469004002010B502480B
:1044000002F028FA10BDC046540500207FB51949B6
:10441000194800F039FC1949194800F035FC1949D0
:10442000194800F031FC1949194800F02DFC194CCD
:104430001949200000F028FC184E1949300000F0FE
:1044400023FC012503233100019500930D220B333A
:10445000144802F08BF91D230393013B02931A3B8E
:104460000193009518331B2221000F4802F046F9F2
:104470007FBDC0460008004218060020000C004224
:104480001C060020001000422006002000140042FC
:104490002406002028060020001800422C060020D8
:1044A000001C00429004002054050020FEE700009C
:1044B000034B10B51B68002B00D0984710BDC046B9
:1044C0003006002070B50F490F4CA14204D100F016
:1044D000CBF802F061FCFEE70C4D00238D42F6D0D4
:1044E000CA18E818A24205D3094B8242EFD0094905
:1044F000002204E0006804331060F1E704C38B423B
:10450000FCD3E4E70000002000010020D49D00005F
:1045100000010020780C002010B500F066F800289B
:1045200001D100F057F810BD014B18607047C0462C
:1045300030060020014B18687047C0463406002042
:10454000F7B51348012284461249134C8E686368FC
:1045500005689B0E1340019288686268019F920E65
:104560003A4067463F6893420ED1BD420CD1864225
:104570000AD35B19FA254868AD00861B07486B43D0
:104580007043000DC018FEBD3D0013000600E3E7B8
:104590003406002010E000E000ED00E0555500007A
:1045A00070B5041E10D0FFF7CBFF050000F01CF81B
:1045B000FFF7C6FF054B401B9842F7D9FA23013C91
:1045C0009B00ED18002CF3D170BDC046E70300003E
:1045D0007047000010B5034A13680133136000F000
:1045E00017FB10BD34060020704700207047F0B55F
:1045F0000C008BB01600002926D0931E222B2DD83C
:104600000A2A05D1002803DA0127404201AD0AE059
:104610000027FBE7310002F07FFCCBB2092916D856
:1046200030332B7001352A000028F3D101ABAB42A7
:10463000F0D02300002F02D02D21631C217001A98E
:104640008A4206D800221A7020000BB0F0BD573302
:10465000E7E7013A117819700133F0E70024F3E736
:1046600010B5FFF7C4FF10BD1E2270B5464847497C
:10467000436893431C3A1343436008238C692343E4
:104680008B61434C434B9C829C8A14439C82DC6824
:104690001442FCD00124404A14701578254203D0FE
:1046A00055786DB2002DF8DB01249460547864B223
:1046B000002CFBDB394C5460547864B2002CFBDBDB
:1046C0008224E4015480547864B2002CFBDB022481
:1046D0009C840E34DD682542FCD0314CDC62102411
:1046E000DD682542FCD09D8C2E4C2C439C841024EC
:1046F000DD682542FCD002249D8C80262C439C84BE
:104700004024DD683542FCD0DD682542F9D0102414
:10471000DD682542FCD000249460547864B2002CFB
:10472000FBDB214C5460547864B2002CFBDB1C6A28
:104730001E4D2C4080251C621C6AAC431C62032366
:1047400093601B4B536053785BB2002BFBDB002361
:10475000FF240B72174A4B728B72CB72164B1A6086
:10476000164B174A1B6811689A065B01C90E234055
:10477000520F12020B431343124A138580234268DF
:104780001343436070BDC046004000410004004038
:104790000C06000000080040000C0040010501006C
:1047A000B905FF7D040A000000070300FFFCFFFFBE
:1047B00003060100006CDC02400000202460800041
:1047C0002060800000400042FA21314B10B518688B
:1047D000890002F01BFB2F4B0138984256D82E4916
:1047E0002E4A4860C020136A00061B021B0A0343BE
:1047F0001362002407238C600B608021136A090672
:104800001B021B0A0B431362FC22254B196A0A4345
:104810001A62FC22196A92010A431A62A022196ADA
:10482000D2020A431A62E0B20021013400F0EEF82D
:104830000F2CF8D11B4B1C005A7852B2002AFBDB1C
:10484000194A5A80194B1A00597EC9090129FBD00F
:10485000E421C90099803F21D970537EDB09012BE7
:10486000FBD0C02300205B011361907000F02EF894
:1048700063785BB2002BFBDB0D4B0E4A6380D37970
:10488000DB09012BFBD04123537010BDFEE7C0466E
:1048900040000020FFFFFF0010E000E000ED00E01E
:1048A00000040040000C00401E4000000040004298
:1048B0002140000000480042914202D002D98A1AE9
:1048C000D0407047521A9040FBE70000164A00B5EE
:1048D0001300517EC9090129FBD00138042816D8DC
:1048E0001969124A0A400F211A615A788A4302F064
:1048F00083FA0308060B0300110001220A435A70D1
:1049000000BD11000322F9E711000222F6E7F023AF
:1049100011691B050B430F21136153788B43190059
:1049200002230B435370EBE700400042FFFFFFF010
:1049300010B504000E2801D80F34E4B20121200084
:1049400000F0F4F81823102163432B4CE41861564F
:10495000002901D014290DD1284B1800DA79D20989
:10496000012AFBD002241A78A2431A70C379DB090A
:10497000012BFBD022480300427ED209012AFBD042
:104980001F2402692140A2430A4302615A7ED209D0
:10499000012AFBD0022219780A431A705A7ED209E2
:1049A000012AFBD00222197B0A431A731A7ED2070E
:1049B000FCD501221A765A7ED209012AFBD00222A6
:1049C000197B0A431A731A7ED207FCD5588B80B222
:1049D0005A7ED209012AFBD002211A788A431A7022
:1049E0005A7ED209012AFBD0064B1A68064B196879
:1049F000FFF762FF10BDC046E0970000004800428C
:104A0000004000424800002044000020182330B538
:104A10001D00040045430820204A5519285601303E
:104A200014D0032912D808006343D156D31802F0DA
:104A3000E3F902280E1B5868CB010221184A9B1883
:104A40001A1840321170012282405A6030BD5868F5
:104A5000CB010621124A9B181A184032117001220C
:104A600082405A609A61F1E75868CB0106210C4AEE
:104A70009B181A1840321170012282405A605A6104
:104A8000E4E75868CB010221054A9B181A18403206
:104A90001170012282409A60D8E7C046E09700007A
:104AA000004400411823F0B508245843114A131854
:104AB0001C5701341BD0012635005F688356BD406A
:104AC0000D4ADB019A18906805420BD10C00601E5C
:104AD0008441D2194032107834400336A400B043E8
:104AE00020431070044A9B18002901D15D61F0BD7C
:104AF0009D61FCE7E097000000440041182310B5D9
:104B00000824434307490020CA181457013408D029
:104B10005B560549DB015B18186A5368D8400123CE
:104B2000184010BDE09700000044004118224243A5
:104B3000F8B52C4E0300B218127A52B214000132AA
:104B40000ED0481C00240C280AD802F055F9072082
:104B5000202020202020200B0B0B0B00012464427E
:104B60002000F8BD092905D10021D8B2FFF74EFF7A
:104B70000024F5E70A2902D1D8B20839F6E7002463
:104B80000B29EDD1D8B20A39FFF740FFE8E718202A
:104B90004343F2185568F3562C00134ADB016E08A4
:104BA00017389B18C9B204409E19002C0DD00F2451
:104BB00030363278090122401143C9B25B19317095
:104BC00040331A7810431870D2E732000F27303282
:104BD00016785B19BE433143117040331A78104385
:104BE0001870BDE7E09700000044004110B50400D4
:104BF000FFF7EEFC014B1C6010BDC0464C000020CE
:104C00000122024B52421A607047C0464C000020FD
:104C1000164A10B51368591C26D0013B1360002BAF
:104C200022D172B6124B134A0433934213D9124A5B
:104C300001211000147D0C42FCD02021148BFF3187
:104C40009B085B0021431183D3610C4B138001232C
:104C5000027D1A42FCD0BFF34F8F094B094ADA603C
:104C6000BFF34F8FC046FDE710BDC0464C0000208B
:104C700000200000030200000040004102A5FFFFE9
:104C800000ED00E00400FA05016070479446F0B5BD
:104C90009E1E721E96416246056892072F68360670
:104CA0003A4332432A60072505AC24780068A40102
:104CB0002940214342680024022B00D05C031143A9
:104CC00021434160F0BD30B5C0250368AD031C68C9
:104CD00012052A402243C0240904A40221401143A2
:104CE000196003685A6814435C6030BD0123026890
:104CF00011680B43136003681A68D207FCD4DA69A1
:104D0000D207F9D470470223026811680B4313607D
:104D10000268D3699B07FCD470470268137E9B0727
:104D2000FCD57047002203685A8370470368187ED9
:104D30004007C00F70470368187EC0097047802382
:104D400002685B42117E0B43137670470368588BF1
:104D50008007C00F704702230268518B0B435383B7
:104D600070470368187EC007C00F70470368188D2E
:104D7000C0B2704703681A7ED207FCD589B2012001
:104D800019857047012203689A75704701220368EC
:104D90001A75704770B5012604684B0833403140DE
:104DA000256809075B070B432B4323600468510008
:104DB000034802F02BF80138C0B2207370BDC04622
:104DC000006CDC020123026811680B431360036866
:104DD0001A68D207FCD4DA69D207F9D470470223E3
:104DE000026811680B4313600268D3699B07FCD407
:104DF00070470368DA699207FCD402211A688A4373
:104E00001A607047036818684000C00F7047026856
:104E1000936A5B0A5B021943916203681A7E520728
:104E2000FCD5986AC0B270470123026811680B4331
:104E3000136003681A68D207FCD4DA69D207F9D480
:104E400070470223026811680B4313600368DA6934
:104E50009207FCD430215A8B8A43110010220A4356
:104E60005A830268D3695B07FCD470470221026849
:104E700013688B4313600268D3699B07FCD47047A7
:104E800080230268DB02116851680B43536070474E
:104E9000036803491A685A680A405A607047C04656
:104EA000FFFFFBFF032230B5036811401C68074D6C
:104EB0005A6809042A40E4061143640F5960052C1E
:104EC00003D10268D3695B07FCD430BDFFFFFCFF50
:104ED00070B5056804006B8B9B069B0F022B0DD0F1
:104EE0006B8B00209B069B0F032B32D06B8B9B0799
:104EF00004D56B8B9B069B0F012B2AD16B6A490053
:104F00001143DB0AC9B2DB020B436B622368002A40
:104F100013D11A7ED207FCD55B8B9B069B0F022B0D
:104F200004D0490800222000FFF7D2FF2368588BE5
:104F30004007C30F012058400BE0187E8007C00FC8
:104F4000F4D11A7ED207F8D5C022596892020A43DA
:104F50005A6070BD0368283319700368187EC00753
:104F6000C00F03D15A8BD207F8D57047588B400732
:104F7000C30F01205840F8E703682833197003680D
:104F800000201A7E520704D5588B01234007C00F1A
:104F90005840704703681868C006400F0438434201
:104FA0005841C0B270470368588B8006800F0238A2
:104FB00043425841C0B270470368187E4007C00F93
:104FC00070470368187EC007C00F70470368588B8E
:104FD000C006C00F70470368187E8007C00F704777
:104FE0000368588B0007C00F704703681A68D20621
:104FF000520F052A05D11A7E920702D41A7ED207D3
:10500000F9D528331878C0B2704700000368214AE8
:1050100030B593422FD0204A93422FD01F4A93425B
:105020002FD01F4A93422FD01E4A93422FD01E4AA0
:1050300093421FD10E2319220121032599401B48B9
:10504000C024016099082B40AB40FC359D4089008D
:105050000918A4000859A843C0259D402B0003430C
:105060000B518023DB011A43114B5A805A7852B2FC
:10507000002AFBDB30BD09231422DDE70A231522B9
:10508000DAE70B231622D7E70C231722D4E70D23E8
:105090001822D1E700080042000C00420010004234
:1050A0000014004200180042001C004200E100E031
:1050B000000C0040F8B504000F0016001D00FFF7BB
:1050C000A5FF2000FFF712FE1C21BB000B4071075B
:1050D0002268090C0B431360842322689375012F07
:1050E0001AD11021012E00D008390C4B69431868E1
:1050F000C00001F08BFE0722216802408B89520319
:10510000DB04DB0C13438B81226803049089DB0CE6
:10511000400B400318439081F8BDC046400000207A
:10512000F7B50600019308AB1F780D001400FFF7D8
:1051300049FE3000FFF76AFFC022240592031440A5
:10514000BA070C2717433C43C0270722BF022D0490
:1051500033683D4025431D60019B316813401A00B0
:1051600080239B0213434B60F7BD70B504000D0014
:105170001600FFF74BFF2000FFF756FE1C222168A8
:105180006D000B6893431A0010231343FF220B603A
:10519000236815405D62002E04D001232268516A05
:1051A0000B4353620723226893752268D3695B0718
:1051B000FCD470BDF8B504000F00FFF727FF2000F6
:1051C000FFF732FE1422236879001A600C4B256821
:1051D0001E68300001F01AFE0A490400300001F098
:1051E00015FE7D23FA215843C90001F00FFEFF236D
:1051F000241AE868053C1C4098430443EC60F8BD61
:105200004000002040420F000020704770B50F267C
:10521000CB1D013902003240D5B22C0000093034D8
:10522000092A00DD07341C70013B8B42F2D170BDAE
:1052300010B50C000B4B1868FFF7E8FF21000A4B74
:1052400008311868FFF7E2FF2100084B1031186899
:10525000FFF7DCFF2100064B18311868FFF7D6FF77
:10526000202010BD0CA0800040A0800044A0800041
:1052700048A0800008B4024B9C46103808BC604728
:10528000315200003F20704713B56B460268D97158
:105290000733546819000122A04716BD70B50A26CD
:1052A0000B7892B06E44023305000B703C22002153
:1052B000300003F0EAFF394801AC06903848242159
:1052C0000790062020776846364AA1742281364A24
:1052D000364BA281FD3AFF3A8018C17768462339E0
:1052E0000630C17768460730C17702A8C17707202A
:1052F000F277032608316944C87703A9CE771021D5
:105300002B366E443170092621851F3169440E7099
:105310000CA9053E0E7033212380022369440B70D3
:1053200006360DA90E7022493536A1863B216E4402
:10533000307010A86274E27702703D3269446A44AA
:105340000B70137040210022E37023716371A3730B
:1053500041336B44218719705A702B7DC039A3707B
:10536000A37263770133DBB2A3776A7D0B200D0054
:1053700068441543C5773120684403703A23501CB4
:105380006B441870412302320A436B441A702100A7
:105390004222084800F0A4FD12B070BD10010424A0
:1053A000020605240904000001020000080B0000A9
:1053B000070500009406002008B4024B9C461038F4
:1053C00008BC60479D52000070B5027D0B790C004F
:1053D00000259A420BD10B784E78A12B09D1212EB2
:1053E00005D107221B491C4800F07AFD0135280031
:1053F00070BD212BFBD1202E22D107221549164842
:1054000000F0B0FC9622134BD200196891421DD1D6
:10541000DB79DB071AD4FA20FFF7E8FB00210E48FE
:1054200000F066FE0125232EE1D1E378A2781B026D
:1054300013430A4A00210848136000F059FED6E7DA
:10544000222EEFD18A78034BDA71DBE7FFF7D8FB26
:10545000E4E7C046540000209406002050000020DD
:1054600008B4024B9C46103808BC6047C953000082
:1054700010B5417D006A013100F0ACFB034B1B68A5
:1054800001335A1E9341181810BDC0465C0000201D
:1054900010B5417D006A023100F0B2FB10BD10B5BD
:1054A000417D006A023100F079FB10BD70B50D003E
:1054B000417D0400130002312A00006A00F066FCFE
:1054C000002801D10123636070BD000010B5054CB8
:1054D00023685A1C04D103685B6998470300206065
:1054E000180010BD5C000020074A0300106810B5CA
:1054F000411C03D001235B42136010BD597D186A23
:10550000013100F0F3FBF8E75C0000200020704759
:1055100070470000FA239B0010B583600F4B0022F8
:10552000C3820300283383610D4B04004260C261D3
:105530001800403323610830631D21622060DA7750
:105540008323A362813BE3628033236301F0FAFA91
:105550002100103101F0C7FA200010BD0302000045
:10556000409B0000022110B5094B1A68437D5B0186
:10557000D318FF339C7A21439972437D0133DBB208
:105580005B01D3180122FF33997A0A439A7210BD46
:105590004C0B00207047000010B5FEF7CBFFF42342
:1055A000FF330024984207D9044B0A20DC79631E9C
:1055B0009C41E4B2FEF7F4FF200010BD540000202F
:1055C00010B502490248FFF7A5FF10BD9406002060
:1055D00038060020704710B5040001F001FC2000DF
:1055E00010BD0000F0B5822919D1C3B2294D5A016E
:1055F000AA189169284C80010C40C02189052143DB
:1056000091612649083340187021506128685B0178
:105610001A5C8A43110030220A431A54F0BD002953
:10562000FCD1C026C1B21B4C4B01E3189A681A4D3D
:10563000B6052A4032439A60194A800182185A609E
:105640000A000727246808325201115DB9430F0090
:105650000121394311559F6910493D4040182E439F
:105660009E6158617020115D814308001021014343
:10567000115599680B48A21808408021490301433D
:1056800099609968890B89039960402311790B43CC
:105690001371C3E74C0B0020FFFFFF8FC0060020F3
:1056A00080080020FF3F00F0EFF310830360012328
:1056B000436072B670470368002B02D162B6BFF335
:1056C0006F8F704773B5836D0400002B1BD10600EC
:1056D000A83635786846FFF7E7FF019BEDB2013B3E
:1056E00002D33578EDB2FAE768460193FFF7E3FF9E
:1056F000002D01D1002076BD2300A4331868A0340A
:105700002368C01AF7E76846FFF7CEFF220000259E
:10571000019BF432013B02D31578EDB2FAE76846FB
:105720000193FFF7C8FF002DE4D02300F033186881
:10573000EC34E5E710B5436D4468DBB25A01A218BA
:10574000916809480833084080214903014391606A
:1057500091685B01890B890391602268D31840220C
:1057600019790A431A7110BDFF3F00F0F7B5436D78
:105770004268DBB219000400083110684901411881
:10578000C979C90711D55B01D21893689B049B0C9A
:105790000CD12000FFF7CEFF63681A68636DDBB29F
:1057A00008335B01D3187F22DA71F7BDE16D002960
:1057B00023D12100A4310B6023000125AC33E56522
:1057C00068465360FFF770FF260020002100019B10
:1057D000A836013BF430F5315A1C33D035700278CD
:1057E0005F1ED2B20A700A78002A04D12000019309
:1057F000FFF7A0FFE8E73B00EEE72100F0310B6088
:105800000023E3652300603353606846FFF74CFFD5
:105810000125260020002100019BF436013BA83021
:10582000F5315A1C0ED0357002785F1ED2B20A7064
:105830000A78002A04D120000193FFF77BFFE8E7F4
:105840003B00EEE768460193FFF735FFA4E737B565
:105850006B46DC1D00230D00237001F073F921005D
:1058600001F0FEF82B681818286020783EBD000073
:105870002023F7B5474A0500D1690F200B43D361B8
:10588000012245490B7813430B70444B197881432F
:10589000197006211C782143197041490C78224364
:1058A0000A701A7802401A70602219780A431A7036
:1058B0003C4B3D4A5A805F78FF09FCD13B48FEF7DC
:1058C00033FE01233A4C3B4E2268300011780B43E3
:1058D000137080223900520003F0D7FC22689378BD
:1058E000DB07FCD456621F26334B1B68590B980C00
:1058F0009B01314030405B0FB14200D105211F2890
:1059000000D10238072B00D1043B31408901178DAB
:1059100001912A4930400F40019939431185118D79
:105920000700B143080038431085118D1803244B3C
:105930007F260B4003430C2013850823D178814335
:105940000B430321D3702268D3788B4301390B4377
:10595000D3702268137833401370042322681678BA
:10596000334313702268C1241389A400834315486C
:10597000138103591B021B0A035180230360137810
:1059800011481943012311702B700021FFF702FE0B
:10599000F7BDC04600040040584400413C4400416B
:1059A00059440041000C0040064000000163000023
:1059B0004C0B0020500B0020246080003FF8FFFFBC
:1059C000FF8FFFFF00E100E038060020007800288C
:1059D00010D00121084B1B681A898A431A810822BA
:1059E000198B0A431A830422198B0A431A83002253
:1059F000024B1A607047C0464C0B0020440B00203D
:105A000010B50F4A93699B0B9B03936113680222A5
:105A1000FF331A729879823A02439A711A7A92077E
:105A2000FCD57F24074A2140937A0800A34319003C
:105A3000802301439172917A5B420B43937210BDB4
:105A40004C0B00200050004110B50C0001F07AF81A
:105A5000210001F038F8002804D1034A93699B0B18
:105A60009B03936110BDC0464C0B0020F8B50D00A0
:105A7000832A19D1CBB23B4C5A01A21891693A48FA
:105A8000AD010840C0218905014391613749206873
:105A90006D187021083355615B011A5C8A4311004F
:105AA00040220A431A54F8BD022A55D1304A8B00CD
:105AB0009858002802D003685B699847F82001F0E5
:105AC0008BF90400274E2B4B4660036040220021D7
:105AD000083003F0DAFB22000023A032A3646565DE
:105AE000E3642365A365E3655360D36413721360B5
:105AF00013654C3213725372FF222B00134059016D
:105B000071188868184F08330740C0208005384353
:105B10008860306807265B01195CAD00B1430E0058
:105B20000321314319542300616D6068114049011C
:105B3000411860334B60616D63680A401B68520115
:105B40009B180122FF33997A20000A439A72FFF7CB
:105B5000F1FD074B5C51A6E711002800FFF742FD5D
:105B6000A1E7C0464C0B0020FFFFFF8FC0060020BE
:105B700098060020989B000070B505000124064B94
:105B8000A200D258002A06D0210028000134FFF7D5
:105B90006DFF0A2CF3D170BD6C0600200B4BCAB20E
:105BA0000B488901C9185301C31859619969083212
:105BB000890B89039961036852019A180223D371F2
:105BC0005179823B0B4353717047C046C006002099
:105BD0004C0B0020084B8A00D05810B5002803D089
:105BE00003689B68984710BDC9B2044B4901591816
:105BF00088688004800CF6E7980600204C0B002093
:105C000010B50C00FFF7E6FF00280CD0064BE4B2FD
:105C10001B68083464011C19802362795B421343BA
:105C200063710223E37110BD4C0B0020F0B51C0022
:105C30002A4B85B01B6807000D000292002B4AD04A
:105C4000274B8A00D058002808D0036822005B68E0
:105C5000029998470400200005B0F0BD3800FFF716
:105C6000B9FF844204D929003800FFF7B3FF0400CC
:105C70000121EBB21B4E03935B010193F218936871
:105C80009B0B9B039360019A336802989B18FF3328
:105C90005A7A0A435A72144BA901C918220003F018
:105CA000EBFA002CD7D029003800FFF793FF00282B
:105CB000D1D14021039B326808335B01D318187996
:105CC000014319710121D971019BD318FF339A7ACD
:105CD0000A439A72BFE701246442BCE7440B0020E8
:105CE000980600204C0B00208008002013B56B465E
:105CF000DC1D22000123FFF799FF012801D1207844
:105D000016BD01204042FBE770B5CBB2124A1348E2
:105D10005C0189018918021951609168104D08339E
:105D20000D40802149032943402591609168890BEA
:105D30008903916001685A018A18167935431571F3
:105D400095796D06FCD55B01C918CB79DB07FCD5CD
:105D500000198068C0B270BD800800204C0B002084
:105D6000FF3F00F070B50D0000211400FFF7CCFFDD
:105D7000A04200D9200000230349A34203D0CA5CFB
:105D8000EA540133F9E770BD80080020F0B51E0029
:105D90003A4B85B01B680F000192002B35D0802351
:105DA000DB019E4231D80025354B8A01D31802937E
:105DB000002E2CD0334B1B680393FF233B401C0069
:105DC00000930834039B64011C19A379DB0921D0DB
:105DD0002D4B2E49186801F019F82D4B1721584307
:105DE00001F014F82B4BE279920713D4DA5D002A04
:105DF00001D10138F7D20122DA55009B5A01214B1B
:105E00009B189A69920B92039A6101256D422800B2
:105E100005B0F0BD00221F4B3400DA553F2E09D9E2
:105E2000009B40245A01174B9B1880229969120647
:105E30000A439A6122000199029803F01DFA009B1F
:105E4000A1045A010F4B890C9B18029A2D195A6113
:105E50009A69361B920B92030A439A61009B039A3C
:105E600008335B01D3180222DA715979823A0A4366
:105E70005A71019B1B1901939AE7C046440B0020FD
:105E8000C00600204C0B00204000002040420F00C4
:105E900070110100B506002070B50D001C000D4BFF
:105EA000AE01F61811003000220003F0E5F9EDB262
:105EB00009496D014D196E61AB69084A2000134014
:105EC000AB61AB69A2049B0B920C9B031343AB61C8
:105ED00070BDC046C00600204C0B0020FF3F00F004
:105EE000F7B5104B01901B780F001500002B0CD15B
:105EF0000D4B16001C78002C09D00C4E0C48348831
:105F00002018641903F0B8F934802800FEBD002E73
:105F1000FBD03A19330000210198FFF7BDFF241888
:105F2000361AF4E7400A0020410B0020420B002003
:105F3000410A0020F8B50F0016000024012A26D9D6
:105F4000100003F085F90500380003F07DFA032303
:105F500002220130400028706B7096420DD93978CA
:105F600000290AD0531CDBB20137A9549E4203D04A
:105F70000232EC54D2B2F0E7320029000548FFF7B4
:105F8000AFFF441EA041C4B2280003F06BF920000B
:105F9000F8BDC04694060020F0B50024012685B067
:105FA000184B0F0069461E7005000094FFF74FFC68
:105FB000154B01A90B806A3BFF3BCB715A330B7227
:105FC000009B8C7109334B800E4B4E7108711C7015
:105FD0003A00092F0FD00D4F09223E700C4E2800B9
:105FE00000943480FFF77CFF69462800FFF72FFC00
:105FF000328808493C702800FFF772FF012005B085
:10600000F0BDC046400A002009020000410B0020FC
:10601000420B0020410A002070B5CE7892B00500F6
:106020000C00022E0BD18B79C9792C480902194337
:10603000FFF7B2FF411E8841C0B212B070BD00F040
:1060400081FD210000F020FD002803D0C117081AAF
:10605000C00FF2E7012E0ED1E279A37912021A43A2
:106060001F49112A13D8D2B2002A10D02800FFF7F6
:1060700037FF0120E1E7032EDFD1A378002B08D101
:10608000E279A37912021A431649032AEBD90A7856
:10609000ECE7022B08D1E279A379120212491A43E4
:1060A0002800FFF747FFC8E7012B05D1E279A37964
:1060B00012021A430D49F3E7032BBED1412201001E
:1060C00001A803F0E2F800F03DFD01A900F0ECFCAE
:1060D000E279A37912021A4301A9E1E794060020AC
:1060E000DA9B0000CA9B0000B49B0000CE9B00001E
:1060F000CBB204495B01C9188B699B0B9B038B6175
:106100007047C0464C0B002037B5050048780C009E
:106110000B2810D800F070FE061B0F2B0F404561B6
:10612000494C5A5D097801AA002906D10223118041
:106130002800FFF7B1FE01203EBD00231380284B4D
:106140001B78012B00D1137002230021F0E78A781D
:106150000023012A03D101AA1380224BF0E7204A31
:106160001370214A93699B0B9B039361E3E78C783F
:10617000012C06D100211B4B01AA1C7011702300B9
:10618000D6E70120002CD7D1154B174A1870936918
:106190009B0B9B039361CFE789782800FFF730FCC6
:1061A000C9E72800FFF738FFC6E701230F4ACCE70D
:1061B0000B780020DB06BFD12800FFF7DDFCA278BA
:1061C0000A4B0B481A60FFF7CDF9CAE70123094AC9
:1061D000BBE78A78074B1A60C3E70020ACE7C046EC
:1061E000B4060020BC0600204C0B0020440B00200D
:1061F00038060020480B00203A4BF7B51E78050002
:10620000002E5FD1384C23689A8B12070DD50822D7
:1062100031009A833000FFF7E5F910222368FF333D
:10622000997A0A439A72314B1E6023689A8B5207FF
:1062300001D504229A83FF331A7A920603D52022CD
:10624000597A0A435A721A7AD20623D56946080047
:10625000274AC0CAC0C0A268920B9203A260402223
:10626000587902435A7160230A7828001A422AD1C9
:10627000FFF74AFF2368FF33002827D0802299794F
:1062800052420A439A711A7A520603D54022597A29
:106290000A435A727F2601252368FF331E722F009E
:1062A000236808377F01DB19DB79002B07D0114BFE
:1062B000AA00D05800280DD003681B689847013504
:1062C000082DECD1F7BDFFF7BFFBD3E720210A4A29
:1062D0009171D8E729000948FFF71AF92368DF19F7
:1062E000FE71ECE7410B00204C0B0020440B00201A
:1062F0008008002098060020FF500041380600204A
:1063000010B50248FFF778FF10BDC0469406002084
:1063100080235B00038000234360073303727047D0
:1063200083000148C01870476C060020836C402B26
:1063300009D03F22036CC154036C01331340036442
:10634000836C013383647047F7B505006846FFF737
:10635000ABF900264022019B013B02D32E6D961B18
:10636000FAE768460193FFF7A6F9AB6D6846002B84
:106370004FD1FFF799F92900019BA831013B5A1C25
:106380000CD00C785A1EE4B2002C05D1684601935B
:10639000FFF791F92000FEBD1300F0E76846019376
:1063A0000024FFF788F92A002900A0321368A431DD
:1063B000B4420ED0086898420BD92800591CEB183B
:1063C0001160603319780830C9B2FFF7AFFF0134AC
:1063D000E9E709689942DDD1002313600133AB6519
:1063E0006846FFF761F92F002A000021019BA837BA
:1063F000013BF532581CC9D0397010785E1E002858
:1064000005D0117028000193FFF794F9EBE73300F2
:10641000F0E7FFF749F92900019BF431013B5A1CD1
:1064200006D00C785A1EE4B2002CAFD01300F6E769
:10643000684601930024FFF73EF92A002900EC3258
:106440001368F031B44202D0086898421DD8096838
:1064500099429FD1002368461360AB65FFF724F98A
:106460002F002A000021019BF437013BF532581C14
:1064700000D18BE7397010785E1E002811D01170A2
:1064800028000193FFF756F9EAE72800591CEB189A
:106490001160AC3319780830C9B2FFF747FF0134F7
:1064A000CBE73300E3E710B50400FFF74DFF206DA5
:1064B00010BD10B50400FFF747FF236D002B03D07C
:1064C000E36CE418207A10BD01204042FBE7F7B5E9
:1064D00017000E000400FFF737FF6846FFF7E4F8E7
:1064E0003F2200259446019B013B5A1C19D0BD4216
:1064F00015D2226D002A12D00121226D4942002AB4
:106500000AD06046E26CA218117AE26C01320240B5
:10651000E264226D013A226571550135E7E7013BDE
:10652000E3E768460193FFF7C6F82800FEBD0000C8
:10653000014B024A1A6070474C0B0020005000418A
:106540000120704710B50368014A1B6A984710BDC7
:1065500013040000C06D7047A83003684020C01AC3
:106560007047C36D002B03D0836DC018007D70474A
:1065700001204042FBE710B504000069FEF7B6FBBE
:10658000002322006365A032A365E365A83413608D
:106590005360236010BD020010B5A8321368002BB1
:1065A000FCD10069FEF7B9FB10BDF0200140303985
:1065B000484248417047F0231B01194080230620C0
:1065C0009B0099420AD00133FF330130994205D034
:1065D000802302385B00994200D0002070470F20D2
:1065E00001400020012903D00239481E8141481C86
:1065F000704700000300F0B5182685B00391AC3356
:1066000004001878330008214343334D1700EB187A
:106610005956FEF78BFA2300AD3318783300082162
:106620004343EB185956FEF781FA2300AF331B782A
:10663000022B0AD12300C0331878FF2805D0082187
:106640004643AE197156FEF771FA2600B03630781F
:10665000FF2819D00121FEF7D9F91822210033783B
:106660001E485A43AB56B431DB01181808601C4968
:10667000AD185B1821000122B8310B6069688A40AF
:106680002100BC310A601A600122039B11002069BD
:10669000FEF710FD39002000FFF78DFF39000500DF
:1066A0002000FFF79CFF390006002000FFF77DFF68
:1066B00033000090290020690122FEF7E7FA230049
:1066C000AE331A7859782069FEF7FDFA2069FEF793
:1066D0001AFB05B0F0BDC046E09700001844004129
:1066E0001444004110B540220021040002F0CDFD09
:1066F0000023200023646364A36410BDF0B585B05B
:106700001D000AAB1B78040000930BAB1B7816002E
:1067100001930CAB1B780F0002930DAB1B78039316
:1067200000234360FA239B0083600F4B0833036010
:106730001430FFF7D7FF20006030FFF7D3FF6A4621
:1067400023001278AC3327619A706A4612792000D0
:10675000DA706A46127A1E701A716A46127B5D7090
:106760001A7505B0F0BDC046EC9B0000F7B51D00E2
:1067700008AB1B780400009309AB1B78160001934B
:1067800000234360FA239B0083600E4B0F00083305
:1067900003601430FFF7A6FF20006030FFF7A2FF70
:1067A0006A4623001278AC3327619A706A461279E0
:1067B0001E70DA7022005D70FF23B032200013706B
:1067C0001374FEBDEC9B000037B5EFF3108300930C
:1067D0000123019372B63F24019B013B5A1C0FD049
:1067E000826C5D1E402A09D0026C8154026C013219
:1067F00022400264826C01328264EEE72B00EDE7F6
:1068000068460193FEF757FF37BD13B5EFF31083CA
:1068100000930123019372B6019B5A1E0192002B33
:1068200014D0836C002B0ED03F22436CC45C436CAD
:10683000013313404364836C013B83646846FEF775
:106840003AFF200016BD01246442F7E76846FEF7D0
:1068500032FFF6E710B504000069FEF777FA00286A
:1068600005D02069FEF782FA2069FEF774FA2069E4
:10687000FEF75CFA002818D02069FEF777FA0100CD
:1068800020001430FFF7A0FF2300B0331B78FF2B4C
:106890000BD04023E26D9B1A092B06DC230022005B
:1068A000B433BC321B6812681A602069FEF759FACB
:1068B00000280CD02300A8331B68002B13D0200025
:1068C0006030FFF7A2FFC1B22069FEF753FA2069DA
:1068D000FEF731FA002805D02069FEF730FA20696A
:1068E000FEF720FA10BD2069FEF750FAEFE700002E
:1068F000F8B5040000690D002600FEF732FAA8364C
:10690000002802D03368002B31D00F273368402B8A
:1069100023D1EFF31083012213420FD1164B5B6892
:10692000DB05DB0DF2D0103B5BB2002B0FDA3B40F6
:10693000083B9B08114A9B009B181B682069FEF7C7
:1069400010FA0028E2D02000FFF784FFDEE79B0862
:10695000C0330B4A9B009B58F0E7200029006030B1
:10696000FFF732FF2069FEF70DFA0120F8BD29007C
:106970002069FEF7FFF9F8E700ED00E01CED00E00C
:1069800000E100E010B504001430FFF73EFF2300E3
:10699000B0331B78FF2B0AD04023E26D9B1A0A2BE1
:1069A00005DD2300BC34B8331B6822681A6010BDB3
:1069B000F7B5C31D0193002306000D00041D0093CD
:1069C00021780A22280000F074F92E2107002800FF
:1069D00000F0F7F8009B3F18DB190093019B01348E
:1069E0009C42EDD1F17928000A2200F062F9009B67
:1069F0001818FEBD024B0833036000234360704744
:106A0000209C000030B503AC2578044CC5710834D7
:106A1000046001714271837130BDC046209C00004A
:106A200010B50400034B0422083308C002F024FC14
:106A3000200010BD209C000010B50400042204308A
:106A400002F01AFC200010BD034B044A0833136007
:106A5000002353607047C046209C0000500C00206B
:106A600070B50E0000254468002C0BD0236831005F
:106A70005B6820009847002802DB2D18E468F3E7E4
:106A800001256D42280070BD70B50D004468002CD2
:106A900008D0236829009B6820009847002802D16D
:106AA000E468F4E7200070BD70B50D004468002C68
:106AB00007D0236829002000DB689847E4682D1878
:106AC000F5E72C7070BD70B50D004468002C08D03F
:106AD000236829001B6820009847002802D1E46839
:106AE000F4E7200070BDF8B542788B790D00017A8B
:106AF0009B18040000208B4222DC6368834219D17A
:106B00006560002623786A71EA792B719B182370DF
:106B1000AB79B34213D9AB68B7006078DF19FFF7E0
:106B2000FFFB3B68013603606378F6B201336370A4
:106B3000EEE70B00D9680029FBD1DD60E1E7012019
:106B4000F8BD000070B50126054D064C2B68334298
:106B500003D12000FFF7DCFB2E60200070BDC04693
:106B6000580C00205C0C0020F7B506000D000C004E
:106B70008B180193019B671B9C4207D033682178D7
:106B80001B683000984701340028F3D13800FEBD5F
:106B900070B5040008000D0002F056FC23680200E6
:106BA00029005B682000984770BD10B50B1E02D00D
:106BB000FFF7EEFF0300180010BD10B5FFF7F5FF5B
:106BC00010BD10B503681B68984710BD0B0010B5C9
:106BD0000A68010012681800904710BD10B50249FC
:106BE000FFF7D6FF10BDC0462C9C000070B5040016
:106BF000FFF7DBFF05002000FFF7F0FF401970BD35
:106C000070B50500FFF7E2FF04002800FFF7E6FF7C
:106C1000201870BDF0B58BB06B461500002205330F
:106C20000600DA770800012D00D80A2509AC2900F2
:106C300000F072F9CAB2130037330700DBB209293A
:106C400002D813003033DBB2013C2370002FEED1A9
:106C500021003000FFF7A9FF0BB0F0BDF8B506002A
:106C60000C00151E04D10368C9B21B689847F8BD13
:106C70000A2A0CD100290BDA2D21FFF7A2FF61426D
:106C800007002A003000FFF7C5FF3818EFE7D2B23F
:106C900021003000FFF7BEFFE9E710B5002A04D15C
:106CA0000368C9B21B68984710BDD2B2FFF7B2FFA4
:106CB000FAE710B5FFF7F1FF10BD10B5040000684A
:106CC000002801D002F0CEFA200010BD10B504005B
:106CD0000068002801D002F0C5FA00232360A360F9
:106CE000636010BD70B504000D000068013102F052
:106CF0007DFB031E01D0012028C470BD036810B5C0
:106D00000400002B04D043688B4201D3012010BD46
:106D10002000FFF7E7FF0028F9D0A368002BF5D18A
:106D200022681370F2E770B50E0011000400150020
:106D3000FFF7E4FF002804D12000FFF7C7FF200081
:106D400070BDA5603100206802F076FBF7E70023F4
:106D500070B504000D00036043608360994207D062
:106D6000080002F071FB290002002000FFF7DBFFA2
:106D7000200070BD026810B5131E06D0002906D190
:106D800080680B00002800D01378180010BD100098
:106D900002F048FB0300F8E710B5FDF715FD02F01F
:106DA00033FAFDF7A7FA0120FDF7FAFB084C2000A3
:106DB000FEF75EFD2000FEF709FEFBF729FAFBF760
:106DC000E5FA044B002BFAD000E000BFF7E7C0461D
:106DD000940600200000000010B502F039FA10BD42
:106DE00010B502F03FFA10BD0B0010B501001800FD
:106DF00002F0FCF910BD000002B4714649084900D8
:106E0000095C49008E4402BC7047C046002243081A
:106E10008B4274D303098B425FD3030A8B4244D362
:106E2000030B8B4228D3030C8B420DD3FF220902A4
:106E300012BA030C8B4202D31212090265D0030B63
:106E40008B4219D300E0090AC30B8B4201D3CB0359
:106E5000C01A5241830B8B4201D38B03C01A52419B
:106E6000430B8B4201D34B03C01A5241030B8B429D
:106E700001D30B03C01A5241C30A8B4201D3CB0288
:106E8000C01A5241830A8B4201D38B02C01A52416D
:106E9000430A8B4201D34B02C01A5241030A8B4270
:106EA00001D30B02C01A5241CDD2C3098B4201D388
:106EB000CB01C01A524183098B4201D38B01C01A06
:106EC000524143098B4201D34B01C01A524103097D
:106ED0008B4201D30B01C01A5241C3088B4201D32C
:106EE000CB00C01A524183088B4201D38B00C01AD9
:106EF000524143088B4201D34B00C01A5241411A00
:106F000000D20146524110467047FFE701B500200C
:106F100000F006F802BDC0460029F7D076E77047BA
:106F20007047C046F8B54746CE4643025B0A440068
:106F3000C20F9C464800DD004B02240E5B0A000E87
:106F400080B5984626009146C90FDB00271A8A4271
:106F500029D0002F15DD00284AD1002B00D095E064
:106F6000ED08FF2C00D188E06B025B0AE6B25B0201
:106F7000F605580A3043D20710430CBC9046994698
:106F8000F8BD002F00D087E0601CC0B2012800DCF3
:106F9000B6E0EE1A720100D5C5E0002E3DD1002208
:106FA00000260023E3E7002F00DC96E000285DD0F8
:106FB000FF2C60D08022D20413431B2F00DDECE0B5
:106FC0002022D21B18009340F8405A1E93410343DD
:106FD000ED186B017BD50134FF2C00D1B7E0012205
:106FE00007262A406B089A4D1D4015432E4029E084
:106FF000FF2CB5D08022D20413431B2F00DDB2E05A
:107000002022D21B19009340F9405A1E93410B4392
:10701000ED1A6B015BD5AD01AE09300002F0C8F886
:1070200005388640844265DC041B3300202001348F
:10703000E340041BA640751EAE41334307261D00E6
:1070400000241E4001224B461A40002E04D00F237C
:107050002B40042B00D004356B0100D480E70134B1
:10706000E6B2FF2C2FD1FF26002380E7002B52D160
:10707000FF2C00D074E70A00ED08002DF3D0802328
:10708000DB032B435B025B0AFF2670E7013F002F07
:10709000BED0FF2CB1D163E7002C47D0FF2869D0C8
:1070A0008024E4047A4225431B2A00DDC5E02C003D
:1070B0002026D440B21A95406A1E954125435D1B97
:1070C00004008946A5E7AB015B0A50E700240122D2
:1070D0004B461A406B07BAD142E7002F3BD101342F
:1070E000E0B201284ADDFF2CBDD00726ED186D085F
:1070F0002E40A7E70723574D241A35401E40A1E72D
:10710000002C1BD1002D6ED1002B00D19AE00A007B
:107110001D003C0024E7013F002F00D158E7FF2C61
:1071200000D04AE7A7E75E1B894676E7002D1CD111
:107130000A00FF281FD004001D0011E7002D5DD1BB
:10714000002B17D180230022DB03FF260FE70A0064
:10715000FF2600230BE7002C21D1002D66D1FF284C
:10716000E9D11D0087E7012352E77A1CA7D0FA4333
:10717000FF2899D10A001D00FF24F1E6002E21D13D
:10718000002D4FD0002B4CD0ED186B019ED5314B0C
:1071900007362E4001241D4054E7012318E7FF283D
:1071A000DFD08024E4047F4225431B2F4DDC2026C2
:1071B000F61B2C00B540FC406A1E95412543ED1896
:1071C000040006E7002DCCD0002B00D153E780212E
:1071D0006046C903084203D04046084200D11D0062
:1071E0000121114047E7002B00D1B9E6EA1A50010E
:1071F00025D507265D1B2E40894623E7FF24002B5B
:1072000000D1ADE680226046D203104204D0404651
:10721000104201D11D00894601224B46FF241A402D
:107220009EE62B00DD080A0000249DE67A1CC6D0ED
:10723000FF43FF28B9D11D001DE701253FE7151EBB
:1072400000D044E70022002391E60125B7E7C046BD
:10725000FFFFFF7DFFFFFFFBF8B557464E46454653
:10726000DE464402E0B546008846640A360EC70F83
:10727000002E63D0FF2E24D08023E400DB041C43C7
:10728000002399469B467F3E434642465D02D20F0D
:107290005B006D0A1B0E9046924665D0FF2B55D0C1
:1072A00080220021ED00D2047F3B1543F61A4346AD
:1072B0004A467B400F2A00D98DE06D4892008258E3
:1072C0009746002C54D108239946063BFF269B463F
:1072D000DAE70025534602291BD0032900D1BFE07D
:1072E000012928D030007F30002820DD6A0704D033
:1072F0000F222A40042A00D004352A0103D5300089
:107300005C4A80301540FE2803DCAC01640AC2B23E
:1073100001E0FF2200246402D205600ADB0710436B
:1073200018433CBC90469946A246AB46F8BD0122A4
:10733000101A1B287CDD00220024ECE7002C1DD154
:1073400004239946033B00269B469DE7FF3E002D04
:1073500020D1022143464A467B400A430F2AD8D80F
:107360004548920082589746002D19D10121F1E736
:107370000C239946093BFF269B4685E7200001F038
:1073800017FF7626431F9C4000237642361A994603
:107390009B4679E74A4603231A439146032186E731
:1073A000280001F005FF431F36189D407636002166
:1073B0007DE780240023E403FF22ACE7002580233F
:1073C000DB031C4228D01D4226D12B435C02640AF9
:1073D0004346FF229FE762016C01A24224D21B2197
:1073E0000025013E012710006D005200002801DB3E
:1073F000944201D8121B3D4301390029F3D11400F6
:10740000621E944125436DE7BA465946250053460E
:10741000022900D061E77CE78023DB031C43640280
:10742000640A3B00FF2276E7121B1A210125D9E7E7
:107430009E362A00B5402C00C240651EAC41144364
:10744000620704D00F222240042A00D004346201D3
:1074500003D4A401640A00225DE7012200245AE754
:107460008024E4032C436402640AFF2253E7C046ED
:10747000309C0000FFFFFFF7709C0000F0B54E4607
:1074800057464546DE46E0B543025B0A450083B0F9
:107490000F1C99462D0EC60F002D57D0FF2D24D05E
:1074A0008020DB00C0041843002381469A469B4697
:1074B0007F3D7C027A00FB0F640A120E984623D0AF
:1074C000FF2A4BD0E30080240020E4047F3A1C43D1
:1074D000AD186B1C47460193534677403A000F2B7B
:1074E00048D87D499B00CB589F46002B00D085E0B3
:1074F00008339A46063B9B467C027A00FB0FFF2529
:10750000640A120E9846DBD1002C00D090E052465F
:1075100001231A4392460120DBE74C4658461700E8
:10752000022824D0032800D1CFE000220023012824
:107530004DD15802D205400AFF071043384303B02B
:107540003CBC90469946A246AB46F0BD002B5BD1B1
:1075500004239A46033B00259B46AAE7FF35002CEF
:1075600060D1524602231A4392460220B1E7FF221D
:107570000023DEE74B461B0C9C464B462604360C8C
:10758000180461463300220C6446000C43434E430A
:107590005043544380191A0C1218964203D9802183
:1075A00049028C4664441B041B0C1004C018830160
:1075B0005E1EB341800E1843130C1B199B0103433D
:1075C0001C00230179D5012362081C401443019A51
:1075D0007F32002A4DDD630704D00F232340042BA4
:1075E00000D00434230103D53C4B019A1C40803267
:1075F000FE2ABCDCA3015B0AD2B29AE70C239A46AE
:10760000093BFF259B4654E7180001F0D1FD4A468F
:10761000431F76259A4000236D4291462D1A9A46C3
:107620009B4646E7524603231A439246032050E7FF
:10763000200001F0BDFD431F2D1A9C40763D002027
:1076400047E780230027DB03FF2272E7424666E715
:107650004C463200584662E780234A46DB031A4212
:1076600022D01C4220D123435B025B0A4746FF2203
:107670005FE701239A1A1B2A21DC23000199D340DA
:107680009E318C401A0023005C1EA34113435A070D
:1076900004D00F221A40042A00D004335A0111D416
:1076A0009B015B0A002244E780234A46DB03134325
:1076B0005B025B0A3700FF223BE7019587E7002268
:1076C000002336E70122002333E78023DB03234333
:1076D0005B025B0AFF222CE7B09C0000FFFFFFF774
:1076E00070B500283DD0C317C5185D40C40F2800F1
:1076F00001F05EFD9E22121A962A07DCD2B20828FB
:1077000033DD083885406802400A23E0992A0BDD02
:10771000052329001B1AD94003001B339D402B0071
:107720005D1EAB4119430D00052801DD431F9D403F
:107730002B000F490B406E0709D00F263540042D52
:1077400005D004335D0102D59F220B40121A9B0124
:10775000580AD2B24002D205400AE407104320433F
:1077600070BD002400220020F4E76802400AF1E71F
:10777000FFFFFFFBF0B54F464646D6460C00090317
:10778000C0B5490A470F5E0039431F03DB0F9C4613
:1077900065007B0A570F1F436D0DE40F760DA14660
:1077A000C000B846D200AB1B64457BD0002B5FDD28
:1077B000002E00D0A4E03E00164300D112E15E1E70
:1077C000002E00D09EE1871A4346B8428041012531
:1077D000C91A4042091A0B0200D431E149024E0A8B
:1077E000002E00D16EE1300001F0E2FC0300083B06
:1077F0001F2B00DD61E120223900D21A9E40D140CA
:107800009F400E439D4200DD51E15D1B6B1C1F2B11
:1078100000DD7CE12021C91A3D0030008F40884006
:10782000DD40791E8F41310007222843D9400025D1
:1078300007433A40002A09D00F233B40042B05D0D0
:107840003B1DBB42BF417F42C9191F000B0200D440
:1078500026E26A1CC64B55056D0D9A4200D106E121
:10786000C44AFF080A40530752023B43120B8EE002
:10787000002B00D0B8E06B1C5B055B0D012B00DC1E
:1078800030E1871A4346B842B641CB1A76429E1B76
:10789000330200D54CE13B003343A1D10022002448
:1078A000002570E0002B00DCE5E0002E00D183E035
:1078B000AF4EB54260D0802636043743B846382BE9
:1078C00000DC3EE1434613431F007A1E97413F18F8
:1078D00087428041404209180B0200D4B0E0A44B1B
:1078E00001359D4200D1C3E0A24A7B080A40012134
:1078F0000F401F435108D30707221F433A4099E71F
:107900009B4EB54238D0802636043743B846382BD4
:1079100000DDDCE01F2B00DC30E11E004746203E8E
:10792000F740BC46202B04D04026F31A46469E4022
:107930003243170063467A1E97411F43CCE0002B69
:1079400000D104E24346134300D159E14B07C0087C
:1079500018438023C9081B03194208D04546ED0887
:107960001D4204D14346D008590708432900420F5D
:10797000C9007F4D1143C0004B07CA087C49C008AD
:1079800003438D4268D012036D05120B6D0D00216B
:1079900012031800130B0A0D12051A43764B2D051E
:1079A00013402B435B00E4075B08234319001CBC16
:1079B00090469946A246F0BD3E00164312D05E1E88
:1079C000002E00D000E187188742804141444042A8
:1079D000091801250B0233D5022585E764463300DB
:1079E000414610001D00C7E7002D00D0DAE00C0072
:1079F0000443F3D05C1C00D19FE15D4CA64200D152
:107A00002FE1DB43382B00DD66E11F2B00DD83E136
:107A100020240500E41A0F00DD40D940A040434671
:107A2000A7405B1A441EA04198462F433843171ABB
:107A3000BA42924143465242991A64463500CAE618
:107A400007223A40002A00D0F6E64B07CA08484908
:107A5000FF083B438D4296D11900114300D19EE1AE
:107A6000802109030A431203120B414D8FE71500D1
:107A7000002200238BE7002B00D0C7E06B1C5F05C2
:107A80007F0D012F00DCF1E0394DAB4200D1B9E0B0
:107A900085180A008542894142444942511807220B
:107AA000CF076D082F4349083A401D00C2E6072260
:107AB0003049ED1A31403A40BCE63E002838864055
:107AC00000279FE6380001F073FB20308EE6434626
:107AD00013431F007A1E9741C71BB84280414042A2
